:020000020000FC
:1000000009C069C06AC041C06AC06BC04AC056C05E
:100010006AC06BC00FE90DBF0FEF08BB0FE107BB54
:1000200024D00CE009BF02E50FBD05E003BF08ECDA
:1000300006BF0CE209BD78941FEF0FEF02B70078FE
:1000400009F000C0FBCF4EE101C043E022E338ECF1
:100050003A95F1F72A95D9F74A95C1F7089500E046
:1000600008BB08950FE108BB089500E024B604BF63
:1000700028BAE9DF08BBE7DF28BAE5DF08BBE3DF22
:1000800028BAE1DF08BBDFDF08950F9302E00F928B
:100090000FB60F9208B200260F900FBE0F900F916F
:1000A00018950F9304E00F920FB60F9208B2002636
:1000B00008BA0F900FBE0F900F9118950F9308E09C
:1000C0000F920FB60F9208B2002608BA0F900FBE1B
:1000D0000F900F911895C49A1895C49A1895C49AC0
:1000E0001895C49A1895C49A1895C49A18954749B2
:0E00F0005474696E672074656D706C61746580
:00000001FF
