:020000020000FC
:1000000009C040C040C040C040C040C040C040C027
:1000100040C040C00FE90DBF0FE107BB24B600E0B0
:1000200004BF28BA1DD028D01BD0FBCF28D018D0B1
:1000300023D016D024D020D015D0C09A13D01CD0F5
:1000400011D0C19A0FD018D00DD0C29A0BD014D0B5
:1000500009D0C39A07D010D005D0C49A03D0EBCFF3
:100060001AE001C011E022E338EC3A95F1F72A9545
:10007000D9F71A95C1F7089500E008BB08950FE17C
:1000800008BB089518951895189518951895189502
:1000900018951895189562617369632074656D7081
:0400A0006C617465B6
:00000001FF
