:020000020000FC
:1000000009C041C042C043C04EC04FC050C05CC0D8
:1000100068C069C00FE90DBF0FE107BB24D00EE037
:1000200009BF02E50FBD05E003BF0FE706BF03E60A
:1000300009BD78941FEF0FEF02B7007809F000C0F8
:10004000FBCF4EE101C043E022E338EC3A95F1F7F3
:100050002A95D9F74A95C1F7089500E008BB08959D
:100060000FE108BB089500E024B604BF28BAE9DF19
:1000700008BBE7DF28BAE5DF08BBE3DF28BAE1DF2A
:1000800008BBDFDF0895C49A1895C49A18950F939A
:1000900002E00F920FB60F9208B200260F900FBE2B
:1000A0000F900F911895C49A1895C49A18950F93AC
:1000B00004E00F920FB60F9208B2002608BA0F9014
:1000C0000FBE0F900F9118950F9308E00F920FB687
:1000D0000F9208B2002608BA0F900FBE0F900F9132
:1000E0001895C49A1895C49A189547495474696E1E
:0A00F000672074656D706C61746523
:00000001FF
