:020000020000FC
:1000000009C0E0C0E1C0AEC0E1C0E2C0B4C0BCC045
:10001000C4C0E0C0F894F4B600E004BF08E101BD3C
:1000200007E401BD0FE90DBF0FE107BB03EC0FBDF6
:1000300005E003BF02E009BF02E006BF0CE209BD14
:10004000C49A5BE15A95F1F74AE021D04AE01FD00B
:1000500042E51DD045E41BD043E519D04DE317D050
:1000600040E34F0D14D04AE012D04DE010D0789408
:10007000C49A5BE15A95F1F74EE209D06AD069D093
:1000800068D067D066D065D064D063D0F1CFC49813
:100090005BE15A95F1F7479510F4C49A02C0C498F1
:1000A00000000000000059E15A95F1F7479510F45F
:1000B000C49A02C0C49800000000000059E15A959B
:1000C000F1F7479510F4C49A02C0C49800000000EC
:1000D000000059E15A95F1F7479510F4C49A02C00F
:1000E000C49800000000000059E15A95F1F74795C7
:1000F00010F4C49A02C0C49800000000000059E146
:100100005A95F1F7479510F4C49A02C0C4980000BC
:100110000000000059E15A95F1F7479510F4C49A90
:1001200002C0C49800000000000059E15A95F1F7A0
:10013000479510F4C49A02C0C49800000000000063
:1001400059E15A95F1F7C49A5BE15A95F1F7089590
:1001500008950AEF01C009E11FEF1A95F1F70A951A
:10016000D9F708952FB72F9334E028B3232728BB5E
:100170002F912FBF18952FB72F9331E028B3232746
:1001800028BB2F912FBF18952FB72F9332E028B39C
:10019000232728BB2F912FBF18952FB72F934F934D
:1001A0005F9347E574DF44E472DF47E470DF41E2C8
:1001B0006EDF4AE06CDF4DE06ADF5F914F912F9177
:1001C0002FBF1895C39A1895C39A1895C39A189576
:1001D000C39A1895C39A18957072616374696365C0
:0801E000205057442B574454F2
:00000001FF
