:020000020000FC
:1000000009C0E6C0E7C0B0C0E7C0E8C0B6C0BEC027
:10001000C6C0E6C0F894F4B600E004BF08E101BD34
:1000200003E401BD0FE90DBF0FE107BB03E80FBDFE
:1000300005E003BF02E009BF00E006BF0CE209BD16
:10004000C49A5BE15A95F1F74AE023D04AE021D007
:1000500042E51FD045E41DD043E51BD04DE319D048
:1000600040E34F0D16D04AE014D04DE012D0789402
:10007000F894C49A5BE15A95F1F74EE20AD078946D
:100080006AD069D068D067D066D065D064D063D0BC
:10009000EFCFC4985BE15A95F1F7479510F4C49AF5
:1000A00002C0C49800000000000059E15A95F1F721
:1000B000479510F4C49A02C0C498000000000000E4
:1000C00059E15A95F1F7479510F4C49A02C0C498C3
:1000D00000000000000059E15A95F1F7479510F42F
:1000E000C49A02C0C49800000000000059E15A956B
:1000F000F1F7479510F4C49A02C0C49800000000BC
:10010000000059E15A95F1F7479510F4C49A02C0DE
:10011000C49800000000000059E15A95F1F7479596
:1001200010F4C49A02C0C49800000000000059E115
:100130005A95F1F7479510F4C49A02C0C49800008C
:100140000000000059E15A95F1F7C49A5BE15A9515
:10015000F1F7089508950AEF01C009E11FEF1A951C
:10016000F1F70A95D9F708952FB72F9334E028B304
:10017000232728BB2F912FBF18952FB72F9331E03E
:1001800028B3232728BB2F912FBF18952FB72F9364
:1001900032E028B3232728BB2F912FBF18952FB704
:1001A0002F9326B732E0230F26BF4F935F9347E587
:1001B00070DF44E46EDF47E46CDF41E26ADF4AE06F
:1001C00068DF4DE066DF5F914F912F912FBF18954B
:1001D000C39A1895C39A1895C39A1895C39A1895F7
:1001E000C39A1895707261637469636520505744AF
:0401F0002B574454F1
:00000001FF
