:020000020000FC
:1000000009C036C137C10DC137C138C117C123C1BD
:1000100037C14BC1F89424B700E004BF08E117E4EE
:1000200001BD11BD0FE90DBF0FE107BBC49A1BE174
:100030001A95F1F70AE087D00AE085D002E583D06F
:1000400005E481D003E57FD00DE37DD000E3020F0E
:100050007AD00AE078D00DE076D005E003BF02E068
:1000600009BF7894C49A1BE11A95F1F70EE209D002
:10007000CCD0CBD0CAD0C9D0C8D0C7D0C6D0C5D0BC
:10008000F1CFC4981BE11A95F1F7079510F4C49AC3
:1000900002C0C49800000000000019E11A95F1F7B1
:1000A000079510F4C49A02C0C49800000000000034
:1000B00019E11A95F1F7079510F4C49A02C0C49893
:1000C00000000000000019E11A95F1F7079510F4FF
:1000D000C49A02C0C49800000000000019E11A95FB
:1000E000F1F7079510F4C49A02C0C498000000000C
:1000F000000019E11A95F1F7079510F4C49A02C0AF
:10010000C49800000000000019E11A95F1F7079566
:1001100010F4C49A02C0C49800000000000019E165
:100120001A95F1F7079510F4C49A02C0C49800001C
:100130000000000019E11A95F1F7C49A1BE11A9525
:10014000F1F708950895C4981BE11A95F1F7079502
:1001500010F4C49A02C0C49800000000000019E125
:100160001A95F1F7079510F4C49A02C0C4980000DC
:100170000000000019E11A95F1F7079510F4C49AF0
:1001800002C0C49800000000000019E11A95F1F7C0
:10019000079510F4C49A02C0C49800000000000043
:1001A00019E11A95F1F7079510F4C49A02C0C498A2
:1001B00000000000000019E11A95F1F7079510F40E
:1001C000C49A02C0C49800000000000019E11A950A
:1001D000F1F7079510F4C49A02C0C498000000001B
:1001E000000019E11A95F1F7079510F4C49A02C0BE
:1001F000C49800000000000019E11A95F1F7C49AB4
:100200001BE11A95F1F7089508954EE101C043E00E
:1002100022E338EC3A95F1F72A95D9F74A95C1F7D8
:1002200008950F9301E00F920FB60F9208B20026C7
:1002300008BA0F900FBE0F900F9118950F9302E020
:100240000F920FB60F9208B2002608BA0F900FBE99
:100250000F900F9118950F9304E00F920FB60F9225
:1002600008B2002608BA0F900FBE0F900F91189594
:10027000C29A1895C29A1895C29A1895C29A18955A
:100280000F930FB70F931F9307E55DDF04E45BDF68
:1002900007E459DF01E257DF0AE055DF0DE053DFE5
:1002A0001F910F910FBF0F911895C29A18956C6509
:0A02B00061726E696E6720574454B6
:00000001FF
