:020000020000FC
:1000000009C03CC13DC110C13DC13EC11BC128C199
:100010003DC153C1F8940FE90DBF24B7A89500E086
:1000200004BF07E101BD0FE107BBC49A1BE11A95AC
:10003000F1F70AE08BD00AE089D002E587D005E429
:1000400085D003E583D00DE381D000E3020F7ED09D
:100050000AE07CD00DE07AD00EE009BF00E00FBDD1
:1000600005E003BF7894C49A1BE11A95F1F70EE2FC
:1000700009D0CED0CDD0CCD0CBD0CAD0C9D0C8D06A
:10008000C7D0F1CFF894C4981BE11A95F1F7079502
:1000900010F4C49A02C0C49800000000000019E1E6
:1000A0001A95F1F7079510F4C49A02C0C49800009D
:1000B0000000000019E11A95F1F7079510F4C49AB1
:1000C00002C0C49800000000000019E11A95F1F781
:1000D000079510F4C49A02C0C49800000000000004
:1000E00019E11A95F1F7079510F4C49A02C0C49863
:1000F00000000000000019E11A95F1F7079510F4CF
:10010000C49A02C0C49800000000000019E11A95CA
:10011000F1F7079510F4C49A02C0C49800000000DB
:10012000000019E11A95F1F7079510F4C49A02C07E
:10013000C49800000000000019E11A95F1F7C49A74
:100140001BE11A95F1F7089578940895C4981BE17E
:100150001A95F1F7079510F4C49A02C0C4980000EC
:100160000000000019E11A95F1F7079510F4C49A00
:1001700002C0C49800000000000019E11A95F1F7D0
:10018000079510F4C49A02C0C49800000000000053
:1001900019E11A95F1F7079510F4C49A02C0C498B2
:1001A00000000000000019E11A95F1F7079510F41E
:1001B000C49A02C0C49800000000000019E11A951A
:1001C000F1F7079510F4C49A02C0C498000000002B
:1001D000000019E11A95F1F7079510F4C49A02C0CE
:1001E000C49800000000000019E11A95F1F7079586
:1001F00010F4C49A02C0C49800000000000019E185
:100200001A95F1F7C49A1BE11A95F1F7089508952C
:100210004EE101C043E022E338EC3A95F1F72A952C
:10022000D9F74A95C1F70895C09A0F9302E00F924B
:100230000FB60F9208B2002608BA0F900FBE0F90AB
:100240000F911895C19A0F9304E00F920FB60F9279
:1002500008B2002608BA0F900FBE0F900F911895A4
:10026000C29A0F9308E00F920FB60F9208B20026C1
:1002700008BA0F900FBE0F900F911895C29A18955B
:10028000C29A1895C29A1895C29A18950F930FB7EB
:100290000F931F930FE108BB07E558DF04E456DF17
:1002A00007E454DF01E252DF0AE050DF0DE04EDFE9
:1002B0001F910F910FBF0F911895C29A18956C65F9
:0A02C00061726E696E6720574454A6
:00000001FF
